{
  "contractName": "Recruitment",
  "abi": [
    {
      "inputs": [],
      "payable": false,
      "stateMutability": "nonpayable",
      "type": "constructor"
    },
    {
      "constant": true,
      "inputs": [
        {
          "internalType": "uint256",
          "name": "",
          "type": "uint256"
        }
      ],
      "name": "candidates",
      "outputs": [
        {
          "internalType": "uint256",
          "name": "uid",
          "type": "uint256"
        },
        {
          "internalType": "string",
          "name": "name",
          "type": "string"
        },
        {
          "internalType": "string",
          "name": "college",
          "type": "string"
        },
        {
          "internalType": "string",
          "name": "addr",
          "type": "string"
        },
        {
          "internalType": "string",
          "name": "phone",
          "type": "string"
        },
        {
          "internalType": "bool",
          "name": "verified",
          "type": "bool"
        },
        {
          "internalType": "address",
          "name": "verifier",
          "type": "address"
        }
      ],
      "payable": false,
      "stateMutability": "view",
      "type": "function"
    },
    {
      "constant": true,
      "inputs": [],
      "name": "candidatesCount",
      "outputs": [
        {
          "internalType": "uint256",
          "name": "",
          "type": "uint256"
        }
      ],
      "payable": false,
      "stateMutability": "view",
      "type": "function"
    },
    {
      "constant": false,
      "inputs": [
        {
          "internalType": "uint256",
          "name": "_uid",
          "type": "uint256"
        }
      ],
      "name": "approveCandidate",
      "outputs": [],
      "payable": false,
      "stateMutability": "nonpayable",
      "type": "function"
    }
  ],
  "bytecode": "0x608060405234801561001057600080fd5b506100f76040518060400160405280600a81526020017f706572736f6e204f6e65000000000000000000000000000000000000000000008152506040518060400160405280600b81526020017f436f6c6c6567652058595a0000000000000000000000000000000000000000008152506040518060400160405280600b81526020017f72616e646f6d20616464720000000000000000000000000000000000000000008152506040518060400160405280600581526020017f31323334350000000000000000000000000000000000000000000000000000008152506100fc60201b60201c565b61031d565b6001600081548092919060010191905055506000735660df1681a32e70704439e9243b1b91c369580e90506040518060e0016040528060015481526020018681526020018581526020018481526020018381526020016000151581526020018273ffffffffffffffffffffffffffffffffffffffff1681525060008060015481526020019081526020016000206000820151816000015560208201518160010190805190602001906101af929190610278565b5060408201518160020190805190602001906101cc929190610278565b5060608201518160030190805190602001906101e9929190610278565b506080820151816004019080519060200190610206929190610278565b5060a08201518160050160006101000a81548160ff02191690831515021790555060c08201518160050160016101000a81548173ffffffffffffffffffffffffffffffffffffffff021916908373ffffffffffffffffffffffffffffffffffffffff1602179055509050505050505050565b828054600181600116156101000203166002900490600052602060002090601f016020900481019282601f106102b957805160ff19168380011785556102e7565b828001600101855582156102e7579182015b828111156102e65782518255916020019190600101906102cb565b5b5090506102f491906102f8565b5090565b61031a91905b808211156103165760008160009055506001016102fe565b5090565b90565b61066a8061032c6000396000f3fe608060405234801561001057600080fd5b50600436106100415760003560e01c80632d35a8a2146100465780633477ee2e146100645780636995604614610294575b600080fd5b61004e6102c2565b6040518082815260200191505060405180910390f35b6100906004803603602081101561007a57600080fd5b81019080803590602001909291905050506102c8565b6040518088815260200180602001806020018060200180602001871515151581526020018673ffffffffffffffffffffffffffffffffffffffff1673ffffffffffffffffffffffffffffffffffffffff16815260200185810385528b818151815260200191508051906020019080838360005b8381101561011e578082015181840152602081019050610103565b50505050905090810190601f16801561014b5780820380516001836020036101000a031916815260200191505b5085810384528a818151815260200191508051906020019080838360005b83811015610184578082015181840152602081019050610169565b50505050905090810190601f1680156101b15780820380516001836020036101000a031916815260200191505b50858103835289818151815260200191508051906020019080838360005b838110156101ea5780820151818401526020810190506101cf565b50505050905090810190601f1680156102175780820380516001836020036101000a031916815260200191505b50858103825288818151815260200191508051906020019080838360005b83811015610250578082015181840152602081019050610235565b50505050905090810190601f16801561027d5780820380516001836020036101000a031916815260200191505b509b50505050505050505050505060405180910390f35b6102c0600480360360208110156102aa57600080fd5b8101908080359060200190929190505050610597565b005b60015481565b6000602052806000526040600020600091509050806000015490806001018054600181600116156101000203166002900480601f01602080910402602001604051908101604052809291908181526020018280546001816001161561010002031660029004801561037a5780601f1061034f5761010080835404028352916020019161037a565b820191906000526020600020905b81548152906001019060200180831161035d57829003601f168201915b505050505090806002018054600181600116156101000203166002900480601f0160208091040260200160405190810160405280929190818152602001828054600181600116156101000203166002900480156104185780601f106103ed57610100808354040283529160200191610418565b820191906000526020600020905b8154815290600101906020018083116103fb57829003601f168201915b505050505090806003018054600181600116156101000203166002900480601f0160208091040260200160405190810160405280929190818152602001828054600181600116156101000203166002900480156104b65780601f1061048b576101008083540402835291602001916104b6565b820191906000526020600020905b81548152906001019060200180831161049957829003601f168201915b505050505090806004018054600181600116156101000203166002900480601f0160208091040260200160405190810160405280929190818152602001828054600181600116156101000203166002900480156105545780601f1061052957610100808354040283529160200191610554565b820191906000526020600020905b81548152906001019060200180831161053757829003601f168201915b5050505050908060050160009054906101000a900460ff16908060050160019054906101000a900473ffffffffffffffffffffffffffffffffffffffff16905087565b60008082815260200190815260200160002060050160019054906101000a900473ffffffffffffffffffffffffffffffffffffffff1673ffffffffffffffffffffffffffffffffffffffff163373ffffffffffffffffffffffffffffffffffffffff161461060457600080fd5b600160008083815260200190815260200160002060050160006101000a81548160ff0219169083151502179055505056fea265627a7a723158203bd6949cdbca528c9f4e31ecaf0c46b1532b9e0e607173df1d3aec456606f88164736f6c634300050c0032",
  "source": "pragma solidity ^0.5.0;\n\ncontract Recruitment {\n    // create a object for the candidate\n    struct Candidate {\n        uint uid;\n        string name;\n        string college;\n        string addr;\n        string phone;\n        bool verified;\n        address verifier; // the contract address of the college\n    }\n\n    // Read/write Candidates\n    mapping(uint => Candidate) public candidates;\n\n    // Store Candidates Count\n    uint public candidatesCount;\n\n    constructor () public {\n        // create a test candidate\n        createCandidate(\"person One\", \"College XYZ\", \"random addr\", \"12345\");\n    }\n\n    //funtion to register new candidate\n    function createCandidate (string memory _name, string memory _college, string memory _addr, string memory _phone) private {\n        candidatesCount ++;\n        // using a static address temporarly, need to store address of each college seperately\n        address collegeAddress;\n        collegeAddress = address(0x5660df1681a32E70704439E9243b1B91c369580e);\n        // create the candidate in blockchain memory\n        candidates[candidatesCount] = Candidate(candidatesCount,_name, _college, _addr, _phone, false, collegeAddress);\n    }\n\n    function approveCandidate (uint _uid) public {\n        // need to check if the contract is called by the respective college\n        require(msg.sender == candidates[_uid].verifier);\n\n        candidates[_uid].verified = true;\n    }\n\n// end of recruitment smart contract\n}\n\n",
  "sourcePath": "/Users/stanlyjohnson/Documents/projects/hr-eth-contract/contracts/recruitment.sol",
  "compiler": {
    "name": "solc",
    "version": "0.5.12+commit.7709ece9.Emscripten.clang"
  },
  "schemaVersion": "3.0.19",
  "updatedAt": "2019-11-18T16:00:35.252Z",
  "networkType": "ethereum",
  "devdoc": {
    "methods": {}
  },
  "userdoc": {
    "methods": {}
  }
}