{
  "contractName": "Recruitment",
  "abi": [
    {
      "inputs": [],
      "payable": false,
      "stateMutability": "nonpayable",
      "type": "constructor"
    },
    {
      "constant": true,
      "inputs": [
        {
          "internalType": "uint256",
          "name": "",
          "type": "uint256"
        }
      ],
      "name": "candidates",
      "outputs": [
        {
          "internalType": "uint256",
          "name": "uid",
          "type": "uint256"
        },
        {
          "internalType": "string",
          "name": "name",
          "type": "string"
        },
        {
          "internalType": "string",
          "name": "college",
          "type": "string"
        },
        {
          "internalType": "string",
          "name": "addr",
          "type": "string"
        },
        {
          "internalType": "string",
          "name": "phone",
          "type": "string"
        },
        {
          "internalType": "bool",
          "name": "verified",
          "type": "bool"
        },
        {
          "internalType": "address",
          "name": "verifier",
          "type": "address"
        }
      ],
      "payable": false,
      "stateMutability": "view",
      "type": "function"
    },
    {
      "constant": true,
      "inputs": [],
      "name": "candidatesCount",
      "outputs": [
        {
          "internalType": "uint256",
          "name": "",
          "type": "uint256"
        }
      ],
      "payable": false,
      "stateMutability": "view",
      "type": "function"
    },
    {
      "constant": false,
      "inputs": [
        {
          "internalType": "string",
          "name": "_name",
          "type": "string"
        },
        {
          "internalType": "string",
          "name": "_college",
          "type": "string"
        },
        {
          "internalType": "string",
          "name": "_addr",
          "type": "string"
        },
        {
          "internalType": "string",
          "name": "_phone",
          "type": "string"
        }
      ],
      "name": "createCandidate",
      "outputs": [],
      "payable": false,
      "stateMutability": "nonpayable",
      "type": "function"
    },
    {
      "constant": false,
      "inputs": [
        {
          "internalType": "uint256",
          "name": "_uid",
          "type": "uint256"
        },
        {
          "internalType": "bool",
          "name": "value",
          "type": "bool"
        }
      ],
      "name": "approveCandidate",
      "outputs": [],
      "payable": false,
      "stateMutability": "nonpayable",
      "type": "function"
    }
  ],
  "bytecode": "0x608060405234801561001057600080fd5b506100f76040518060400160405280600a81526020017f706572736f6e204f6e65000000000000000000000000000000000000000000008152506040518060400160405280600b81526020017f436f6c6c6567652058595a0000000000000000000000000000000000000000008152506040518060400160405280600b81526020017f72616e646f6d20616464720000000000000000000000000000000000000000008152506040518060400160405280600481526020017f31323334000000000000000000000000000000000000000000000000000000008152506100fc60201b60201c565b61031d565b6001600081548092919060010191905055506000735660df1681a32e70704439e9243b1b91c369580e90506040518060e0016040528060015481526020018681526020018581526020018481526020018381526020016000151581526020018273ffffffffffffffffffffffffffffffffffffffff1681525060008060015481526020019081526020016000206000820151816000015560208201518160010190805190602001906101af929190610278565b5060408201518160020190805190602001906101cc929190610278565b5060608201518160030190805190602001906101e9929190610278565b506080820151816004019080519060200190610206929190610278565b5060a08201518160050160006101000a81548160ff02191690831515021790555060c08201518160050160016101000a81548173ffffffffffffffffffffffffffffffffffffffff021916908373ffffffffffffffffffffffffffffffffffffffff1602179055509050505050505050565b828054600181600116156101000203166002900490600052602060002090601f016020900481019282601f106102b957805160ff19168380011785556102e7565b828001600101855582156102e7579182015b828111156102e65782518255916020019190600101906102cb565b5b5090506102f491906102f8565b5090565b61031a91905b808211156103165760008160009055506001016102fe565b5090565b90565b610b22806200032d6000396000f3fe608060405234801561001057600080fd5b506004361061004c5760003560e01c80632d35a8a2146100515780633477ee2e1461006f578063828ca3881461029f5780638fb7ec65146102d9575b600080fd5b610059610559565b6040518082815260200191505060405180910390f35b61009b6004803603602081101561008557600080fd5b810190808035906020019092919050505061055f565b6040518088815260200180602001806020018060200180602001871515151581526020018673ffffffffffffffffffffffffffffffffffffffff1673ffffffffffffffffffffffffffffffffffffffff16815260200185810385528b818151815260200191508051906020019080838360005b8381101561012957808201518184015260208101905061010e565b50505050905090810190601f1680156101565780820380516001836020036101000a031916815260200191505b5085810384528a818151815260200191508051906020019080838360005b8381101561018f578082015181840152602081019050610174565b50505050905090810190601f1680156101bc5780820380516001836020036101000a031916815260200191505b50858103835289818151815260200191508051906020019080838360005b838110156101f55780820151818401526020810190506101da565b50505050905090810190601f1680156102225780820380516001836020036101000a031916815260200191505b50858103825288818151815260200191508051906020019080838360005b8381101561025b578082015181840152602081019050610240565b50505050905090810190601f1680156102885780820380516001836020036101000a031916815260200191505b509b50505050505050505050505060405180910390f35b6102d7600480360360408110156102b557600080fd5b810190808035906020019092919080351515906020019092919050505061082e565b005b610557600480360360808110156102ef57600080fd5b810190808035906020019064010000000081111561030c57600080fd5b82018360208201111561031e57600080fd5b8035906020019184600183028401116401000000008311171561034057600080fd5b91908080601f016020809104026020016040519081016040528093929190818152602001838380828437600081840152601f19601f820116905080830192505050505050509192919290803590602001906401000000008111156103a357600080fd5b8201836020820111156103b557600080fd5b803590602001918460018302840111640100000000831117156103d757600080fd5b91908080601f016020809104026020016040519081016040528093929190818152602001838380828437600081840152601f19601f8201169050808301925050505050505091929192908035906020019064010000000081111561043a57600080fd5b82018360208201111561044c57600080fd5b8035906020019184600183028401116401000000008311171561046e57600080fd5b91908080601f016020809104026020016040519081016040528093929190818152602001838380828437600081840152601f19601f820116905080830192505050505050509192919290803590602001906401000000008111156104d157600080fd5b8201836020820111156104e357600080fd5b8035906020019184600183028401116401000000008311171561050557600080fd5b91908080601f016020809104026020016040519081016040528093929190818152602001838380828437600081840152601f19601f8201169050808301925050505050505091929192905050506108cc565b005b60015481565b6000602052806000526040600020600091509050806000015490806001018054600181600116156101000203166002900480601f0160208091040260200160405190810160405280929190818152602001828054600181600116156101000203166002900480156106115780601f106105e657610100808354040283529160200191610611565b820191906000526020600020905b8154815290600101906020018083116105f457829003601f168201915b505050505090806002018054600181600116156101000203166002900480601f0160208091040260200160405190810160405280929190818152602001828054600181600116156101000203166002900480156106af5780601f10610684576101008083540402835291602001916106af565b820191906000526020600020905b81548152906001019060200180831161069257829003601f168201915b505050505090806003018054600181600116156101000203166002900480601f01602080910402602001604051908101604052809291908181526020018280546001816001161561010002031660029004801561074d5780601f106107225761010080835404028352916020019161074d565b820191906000526020600020905b81548152906001019060200180831161073057829003601f168201915b505050505090806004018054600181600116156101000203166002900480601f0160208091040260200160405190810160405280929190818152602001828054600181600116156101000203166002900480156107eb5780601f106107c0576101008083540402835291602001916107eb565b820191906000526020600020905b8154815290600101906020018083116107ce57829003601f168201915b5050505050908060050160009054906101000a900460ff16908060050160019054906101000a900473ffffffffffffffffffffffffffffffffffffffff16905087565b60008083815260200190815260200160002060050160019054906101000a900473ffffffffffffffffffffffffffffffffffffffff1673ffffffffffffffffffffffffffffffffffffffff163373ffffffffffffffffffffffffffffffffffffffff161461089b57600080fd5b8060008084815260200190815260200160002060050160006101000a81548160ff0219169083151502179055505050565b6001600081548092919060010191905055506000735660df1681a32e70704439e9243b1b91c369580e90506040518060e0016040528060015481526020018681526020018581526020018481526020018381526020016000151581526020018273ffffffffffffffffffffffffffffffffffffffff16815250600080600154815260200190815260200160002060008201518160000155602082015181600101908051906020019061097f929190610a48565b50604082015181600201908051906020019061099c929190610a48565b5060608201518160030190805190602001906109b9929190610a48565b5060808201518160040190805190602001906109d6929190610a48565b5060a08201518160050160006101000a81548160ff02191690831515021790555060c08201518160050160016101000a81548173ffffffffffffffffffffffffffffffffffffffff021916908373ffffffffffffffffffffffffffffffffffffffff1602179055509050505050505050565b828054600181600116156101000203166002900490600052602060002090601f016020900481019282601f10610a8957805160ff1916838001178555610ab7565b82800160010185558215610ab7579182015b82811115610ab6578251825591602001919060010190610a9b565b5b509050610ac49190610ac8565b5090565b610aea91905b80821115610ae6576000816000905550600101610ace565b5090565b9056fea265627a7a72315820f66b6eec895460040cbf5d4fb2bac6cc7dce4ea8d72aae9b8f196371d250d93064736f6c634300050c0032",
  "source": "pragma solidity ^0.5.0;\n\ncontract Recruitment {\n    // create a object for the candidate\n    struct Candidate {\n        uint uid;\n        string name;\n        string college;\n        string addr;\n        string phone;\n        bool verified;\n        address verifier; // the contract address of the college\n    }\n\n    // Read/write Candidates\n    mapping(uint => Candidate) public candidates;\n\n    // Store Candidates Count\n    uint public candidatesCount;\n\n    constructor () public {\n        // create a test candidate\n        createCandidate(\"person One\", \"College XYZ\", \"random addr\", \"1234\");\n    }\n\n    //funtion to register new candidate\n    function createCandidate (string memory _name, string memory _college, string memory _addr, string memory _phone) public {\n        candidatesCount ++;\n        // using a static address temporarly, need to store address of each college seperately\n        address collegeAddress;\n        collegeAddress = address(0x5660df1681a32E70704439E9243b1B91c369580e); //replace with your local ganache address\n        // create the candidate in blockchain memory\n        candidates[candidatesCount] = Candidate(candidatesCount,_name, _college, _addr, _phone, false, collegeAddress);\n    }\n\n    function approveCandidate (uint _uid, bool value) public {\n        // need to check if the contract is called by the respective college\n        require(msg.sender == candidates[_uid].verifier);\n\n        candidates[_uid].verified = value;\n    }\n\n// end of recruitment smart contract\n}\n\n",
  "sourcePath": "/Users/stanlyjohnson/Documents/projects/hr-eth-contract/contracts/Recruitment.sol",
  "compiler": {
    "name": "solc",
    "version": "0.5.12+commit.7709ece9.Emscripten.clang"
  },
  "schemaVersion": "3.0.19",
  "updatedAt": "2020-02-08T02:57:40.045Z",
  "networkType": "ethereum",
  "devdoc": {
    "methods": {}
  },
  "userdoc": {
    "methods": {}
  }
}